:020000022000DC
:1070000000000420FD9E03003D9F03003F9F0300FE
:10701000419F0300439F0300459F030000000000C1
:10702000000000000000000000000000799E030046
:10703000499F030000000000999E03004D9F03003C
:1070400051A103004F9F03004F9F03000915030048
:10705000BD1503004F9F03004F9F03004F9F030088
:107060004F9F03004F9F03004F9F03004F9F03005C
:107070004F9F03004F9F03004F9F03004F9F03004C
:107080004F9F0300C99B03004F9F03004F9F0300C6
:107090004F9F03004F9F0300E1AD02004F9F03008D
:1070A0004F9F03004F9F03004F9F03004F9F03001C
:1070B0004F9F03004F9F03000000000000000000EE
:1070C0004F9F03004F9F03004F9F030065A60300DF
:1070D0004F9F03004F9F03004F9F03004DCA0200C4
:1070E0004F9F03004F9F03004F9F030000000000CD
:1070F000000000004F9F030000000000DDA6030019
:10710000000000000000000000000000000000007F
:10711000000000000000000000000000000000006F
:10712000000000000000000000000000000000005F
:10713000000000000000000000000000000000004F
:10714000000000000000000000000000000000003F
:10715000000000000000000000000000000000002F
:10716000000000000000000000000000000000001F
:10717000000000000000000000000000000000000F
:1071800000000000000000000000000000000000FF
:1071900000000000000000000000000000000000EF
:1071A00000000000000000000000000000000000DF
:1071B00000000000000000000000000000000000CF
:1071C00000000000000000000000000000000000BF
:1071D00000000000000000000000000000000000AF
:1071E000000000000000000000000000000000009F
:1071F000000000000000000000000000000000008F
:10720000F1EE103A43F08073E1EE103A704700BFA0
:1072100010B5054C237833B9044B13B10448AFF3D0
:1072200000800123237010BD606300200000000077
:107230006461040008B5034B1BB103490348AFF375
:10724000008008BD00000000646300206461040049
:10725000154B002B08BF134B9D46A3F5803A002128
:107260008B460F461348144A121A18F089FE0F4B2A
:10727000002B00D098470E4B002B00D098470020E1
:10728000002104000D000D48002802D00C48AFF387
:10729000008018F00BFE2000290012F087FE18F085
:1072A000DFFD00BF00000800000004200000000017
:1072B0000000000060630020C8B200200000000051
:1072C0000000000010B5014688B00D4C0D4803F0D9
:1072D0007FFD002320226946CDE90033CDE9033349
:1072E000CDE905330293079301F0F0FE06492046ED
:1072F00010F054FA6946204610F07EFA08B010BD2E
:1073000040870020C87E002038340400014902482C
:1073100010F072BA483404004087002000F088B9A9
:1073200010B52DED028B052088B010F005FB10F094
:10733000F7FA194C9FED198A03462046079309F086
:107340005FFE20EE080A20468DED010A09F0D8FD07
:1073500020EE080A20468DED020A09F011FE20EE0B
:10736000080A20468DED030A09F08AFE20468DEDBD
:10737000040A09F0D1FE20468DED050A09F018FF38
:1073800001A88DED060A00F0CDFC01A800F08EF9F1
:1073900008B0BDEC028B10BD74640020C3F51C4125
:1073A00010B5094C4FF48071204604F01DF9074ACE
:1073B0000749204618F080F9BDE8104005486A22C8
:1073C000002109F0B3BA00BF8063002000600020F4
:1073D0007DB602007464002010B52C484FF4E131F2
:1073E00004F0E4FF2A4809F09FFB20B1294927480F
:1073F00010F002FAFEE728490446244810F0FCF990
:10740000264800F05FFC264800F0F4F8254800F01C
:10741000F9F922460121244803F090FA2349224831
:1074200003F022FC0421204803F046FC20491E48BA
:1074300002F094F81F491C4802F092F81E4804F02C
:1074400061F906211D4800F07FFE1C4800F064FE33
:1074500019491A4800F01CFE184800F02FFE174882
:10746000012100F0A3FEF4221448202100F09AFE2E
:1074700012481E2100F094FE2146104800F0F6FE4E
:10748000BDE810400E49014810F0B6B94087002011
:10749000746400205C340400683404001D7302002E
:1074A00035750200C5740200C87E002070340400E7
:1074B000C57202000D730200806300200885002061
:1074C00078340400F0B50189164F42890368C489F5
:1074D000A7FB0106A7FB0205F608ED08A7FB044081
:1074E00006EB8604A1EB440105EB850495B0A2EB05
:1074F000440289B292B2C008CDE90061CDE90252DE
:107500000490094A08A8302119F0C0FB08A9079087
:10751000064810F043F9079A054808A903F0DEFE73
:1075200015B0F0BDCDCCCCCCA034040040870020F9
:107530008063002030B5294A2DED028B13689DB081
:1075400001330446136000F0E7FB0FCCDFED247A33
:1075500008ADB4EEE70A0FC594E80F00F1EE10FA9B
:1075600098BFFCEEC07A85E80F009ABFCDED077A90
:107570009DF81C30FF2308A8B0EE408A8DF8343007
:1075800000F086F900F026FB164BBDF82C10019197
:10759000A3FB0013DB0803EB8301BDEEC88AA0EB5D
:1075A0004100BDF82A20009280B29BB2CDE90330A1
:1075B0000D4A089B8DED028A10A8302119F066FB58
:1075C00010A90790094810F0E9F8079A084810A98F
:1075D00003F084FE1DB0BDEC028B30BD7C63002047
:1075E00000007F43CDCCCCCCC834040040870020C1
:1075F0008063002038B50B4C05466C220021201D0D
:1076000018F0BEFC084B094A2560002001212071BA
:1076100084F86C10E264A3666365A365E365236682
:1076200038BD00BFA06400200000A042C3F51C418B
:10763000F8B51C4C2379052B054611D07BB9D5ED47
:10764000037AD5E90032FDEEE77AA26017EE900AE0
:10765000002101226083E360A364E1822271F8BD0E
:107660000368A16C627F608A5B1A9BB22168A38267
:1076700042F0010203442382627711B104F1080051
:107680008847094EA6F120070FCF0FC697E80F00D5
:1076900086E80F00A6F130002022002118F070FCCF
:1076A000CDE700BFA0640020C8640020524B90EDDD
:1076B000046AB3F91A2090ED027A93ED135A07EE9B
:1076C000902AF8EEE77AF0EEC65AF0EEE77A35EE59
:1076D000077AF4EEE75AF6EE006AF1EE10FA67EE7A
:1076E000266A04DDFDEEC67A17EE902A5A831A79CF
:1076F000013A032A15D8DFE802F0021E3717DFED42
:107700003F7AB4EEE77AF1EE10FA0ADDF3EE047A8E
:10771000F4EEE75AF1EE10FA03D582699A64022278
:107720001A71C3ED136A704782699A6405221A714F
:10773000C3ED136A7047B4EEE65AF1EE10FA53DD6A
:10774000FAEE047AB4EEE76AF1EE10FA4CD51A6D4F
:10775000002A4ED081698A1A042AE2D90020032225
:10776000996418651A71DCE7D3ED1A7AF4EEE75ADA
:10777000F1EE10FA06DCDFED227AB4EEE77AF1EEF4
:1077800010FACED55A6E816903EB820010B4C0EDB9
:10779000155AD3ED157AD3ED165A93ED177A93ED6A
:1077A000186ADC68996477EEA57A013277EE877AF9
:1077B000504277EE867AB5EE007A00F0030067EE6D
:1077C000877A02F00302A1EB040158BF4242002471
:1077D00004201C8359825DF8044BC3ED1A7A5A6663
:1077E0001871C3ED136A704700221A65C3ED136A5E
:1077F000704782691A6594E7A0640020806A854119
:10780000F628BC402DE9F0434FF4C852044600214D
:107810001948DFF86490DFF8748089B018F0B0FB85
:10782000164B1749174A1C6000231E460B60136055
:107830001F464FF0E50E40F2691CCDE9067703972D
:107840000597019704970096ADF814C0ADF80CE0C9
:10785000CDF808806D460FCD09EB46140FC495E8AE
:107860000F000136092E84E80F00E6D1064B1E609A
:1078700009B0BDE8F08300BF14650020147E00202D
:10788000187E0020106500201C7E00203C0257015D
:107890002DE9F04FC34BDFF834A31D68DAF8007010
:1078A000DFF81493DFF828E3064605EB0708844663
:1078B0000FCE89FB084B4FEAE874C4EBAB144FF0D2
:1078C000C80B0BFB14840EEB44140FC496E80F0096
:1078D000C72F84E80F0087B011DCB349B34A0B68A7
:1078E000013302FB03F20B60B14B0137B3EB720FB4
:1078F000CAF8007080F0358107B0BDE8F08FAA4863
:10790000AA4AA84C691C89FB0139CD170368C5EB4D
:10791000A91501330BFB1515A549256002FB03F2E0
:10792000B1EB720F0360E7D3DFEDA25AA24E002144
:10793000F0EE653AB0EE653AF0EE652AB0EE656AB3
:10794000B0EE655AF0EE654A07EB05080846C82414
:107950000BE074EEA64A35EE075A36EE276A013080
:1079600075EE845A0135454533D086FB0523EA1769
:10797000C2EBA31304FB13530EEB43125B0192F80B
:10798000159019F0010FEDD0B2F912905EF80330A6
:1079900007EE909AB2F80A9006EE909AB2F80C9020
:1079A000127DF8EEE77A07EE109A04EE102ADB0754
:1079B000F8EE666AB8EE477AB8EE444AF0EEE77A37
:1079C000C7D472EEA62A33EE073A73EEA73A013116
:1079D000C6E768B107EE900AF8EEE77AF7EE006ABC
:1079E00086EEA77A64EE874A25EE075A26EE076AE6
:1079F00069B107EE901AF8EEE77AF7EE006A86EEC4
:107A0000A77A62EE872A23EE073A63EE873A74EE8E
:107A1000A27A9FED6A7ADCE90032F4EEC77AF1EEE1
:107A200010FACDE9013200F1BA8074EEE24ADFEDDE
:107A3000646AF0EEE44A64EEA64AB2EE044A84EECA
:107A4000A77AF6EE007AB4EEE67AF1EE10FA88BF85
:107A5000B0EE667AE7EE047AFCEEE77A17EE903A3B
:107A60009BB275EE037A9FED557AADF80C30F4EECB
:107A7000C77AF1EE10FA00F1908035EE435ADFED4F
:107A8000506AB0EEC55A25EE265AF2EE044A85EE4B
:107A9000277AF6EE007AB4EEE67AF1EE10FA88BFB5
:107AA000B0EE667AE7EE247AFCEEE77A17EE903ACB
:107AB0009BB276EE237A9FED417AADF80E30F4EE6C
:107AC000C77AF1EE10FA66D436EE636ADFED3C6AEF
:107AD000B0EEC66A26EE266AB2EE045A86EE277A21
:107AE000F6EE007AB4EEE67AF1EE10FA88BFB0EE68
:107AF000667AE7EE057AFCEEE77A17EE903A9BB2EB
:107B0000002FADF810303EDD07EE907AF8EEE77A00
:107B1000F2EE046A85EEA77AF6EE007AE7EE267AB0
:107B2000FCEEE77A17EE903A9BB2DFED267A264A12
:107B3000ADF81230FF2FB4EEE77A1368A8BFFF2725
:107B4000F1EE10FAACBF022201228DF814708DF80C
:107B50001520002B3FF4D0AE01A8984707B0BDE830
:107B6000F08F002F3FF7E0AE9FED126AB0EE465A5D
:107B7000F0EE464AF0EE465AF0EE463AB0EE463A9D
:107B8000F0EE462A43E707EE907AF8EEE77A002314
:107B900085EEA77AC9E70023B2E7002389E700232F
:107BA0005FE700BF187E002010650020CDCCCCCC54
:107BB00099999919000000001F85EB51BD37863552
:107BC0000000484300000243147E00201C7E002079
:107BD00014650020344BF0B51D68002D62DD334B79
:107BE000DFED336A1968334CDFF8D4C00026F0EEBD
:107BF000667A0D44B646C8278CFB0123CA17C2EB30
:107C0000A31307FB131304EB43125B01507DC00762
:107C10000FD5E35813F0010F538907EE103AB8EE71
:107C2000C77A19BF0EF1010E77EE877A76EE876A72
:107C3000013601318D42DFD1BEF1000F05D007EED4
:107C400010EAB8EEC77AC7EE877A2EB107EE106A4F
:107C5000B8EEC77AC6EE876A37EEA66A9FED167A47
:107C6000B4EEC76AF1EE10FA1CD477EEE67ADFEDD7
:107C7000136AF0EEE77A67EEA67AF2EE045A87EE20
:107C8000867AF6EE007AB4EEE67AF1EE10FA88BF64
:107C9000B0EE667AE7EE257AFCEEE77A17EE903AD8
:107CA00098B2F0BD0020F0BD1C7E0020187E0020A0
:107CB0000000000014650020BD37863500004843F1
:107CC0001F85EB5138B5114C054688220021201D37
:107CD00018F056F94FF416724FF41673C4E91E23C8
:107CE000C4E920230A480B4B256001216FF0FA02FA
:107CF000C4F88C0084F845102267E3612362636254
:107D0000A362E36223636363A36338BD207E002024
:107D10000000C84200002041014B93ED230A704748
:107D2000207E002090ED016A90ED004AD0ED024ADD
:107D3000DFEDAB0ADFEDAB1A9FEDAB7ADFEDAB5AAF
:107D40009FEDAB3A9FEDAB5A26EE066AF0B5A4EE76
:107D5000046AA94CD4ED077A94ED081AD4ED026AAE
:107D600094ED092A94ED230AD4ED0A3AD4ED042ABD
:107D70009FEDA24AA4EEA46A2DED028BF1EEC64A55
:107D800085B094ED018A94ED066AC4ED014A77EE60
:107D9000817A76EEC86A77EE827AB4EEE00AF1EE86
:107DA00010FA76EEA46AB8BFB0EE617A77EEA37AE5
:107DB000D4ED0B1A94ED0C2AD4ED0E3A66EEA56ABA
:107DC00027EE227AB8BFB0EE435A77EEA17AA6EE3C
:107DD000857A94ED0D3AD4ED052A84ED047A77EE98
:107DE000827A90ED045AC4ED026A77EE837A76EED9
:107DF000626A77EEA37A76EE856A67EE847A66EE3B
:107E0000A55AF4EEC77AF1EE10FAC4ED065A84EDE5
:107E1000055A1DD5D4ED107A012384F84430F4EED0
:107E2000C77A94F84530F1EE10FA48BF84ED107A25
:107E3000002B7BD1DFED727AF4EEE76AF1EE10FAF7
:107E400010DD012384F8463005B0BDEC028BF0BD97
:107E5000DFED6B7AF4EEE76A0123F1EE10FA84F8B5
:107E60004530EEDC94F84630002BEDD094F84430E9
:107E7000002B54D08569236FE81AF9284FD9E16B9C
:107E8000666FD4F840C04A1C574207F0070704EB5E
:107E9000810102F0070258BF7A42C1F81CC0E263B8
:107EA000002E6CD107EE903AE06EB8EE677A07EEDE
:107EB000905A0028F8EE676A18DDA36E184401E0B6
:107EC000834213D0594201F0070103F0070258BF63
:107ED0004A4204EB8202D2ED127AB4EEE77AF1EE76
:107EE00010FA03F10103EBD5F0EE676AFCEEE66AE7
:107EF0002368019600270136002200200021C4E9F2
:107F00001A016667CDF808C0CDED035A2567CDED9F
:107F1000006A276484F844200BB168469847002320
:107F200084F8463005B0BDEC028BF0BDE26ED0EDBA
:107F3000067A072AF8EE677A11DDA26E531C5942C1
:107F400001F0070103F0070304EB820258BF4B4224
:107F5000C2ED127AA366002384F845306AE7A36E67
:107F60001344594201F0070103F0070358BF4B4285
:107F7000013204EB8303E266C3ED127AEBE7D4F837
:107F8000881001F11E07B5EE007A44F82700D4E905
:107F90001E20D4F880700244D4F884003A4402448D
:107FA00007EE902AF8EE677A013127EE877A484289
:107FB000B5EEC07A00F0030001F0030158BF414262
:107FC000F1EE10FACCBFDFED0F6A9FED0F7AC4F827
:107FD0008810C8BF86EEA77A84ED237A62E700BFD7
:107FE00000000243602C303FED4B063FE3307C3F06
:107FF00041A79F3E2668F33E207E00200000803D82
:10800000FA9FF34100606A480000000072DF704789
:1080100073DF704777DF704738B5054608460C4672
:1080200002F0D8F9102803D080280ED0012038BDE6
:10803000EB7FA2881B2B0EDCE9180320E854487064
:108040004A80EB7F0433EB77F0E7A368002BEDD099
:10805000E97F0D2901DD002038BD6A181120685420
:108060000721517058681C689968DB68C2F80E30A7
:10807000C2F80600C2F80240C2F80A10EB7F1233C1
:10808000EB77012038BD00BF0022C2770270704735
:1080900030B5D1E9042485B0CD68074B009369461B
:1080A000CDE902240195FFF7B7FF0446684602F0C8
:1080B0006DF9204605B030BD44350400F0B589B0F7
:1080C000064620221348694602F0E2FDF37FC218FB
:1080D0001D2A0CDDC3F11D04E4B2E2181D2A4FF085
:1080E0000005D8BF082705DD284609B0F0BD0446C5
:1080F00001250927F218601CF05469465770901C3E
:10810000224617F015FFF27F023214442846F47716
:1081100009B0F0BDC87E002010B50446094802F041
:1081200015FEE37F1C2B01DD002010BDE2180221AB
:10813000E1540A2390705370E37F0333E377012007
:1081400010BD00BFC87E0020C27F1C2A01DD0020B8
:10815000704710B403469C18022098540120A17067
:108160006070DA7F0332DA775DF8044B704700BF46
:1081700010B4084A084C094902620022C0E90A41C9
:10818000C0E90C225DF8044B0270C2774262826340
:10819000704700BFFF0101002000F40020001E0016
:1081A000C1857047018581854285704780F822101E
:1081B000704700BFF0B5154605EB8503274A89B027
:1081C000044603EB830300200E469B0011680290D7
:1081D000CDE90460ADF8143094F821308DF8083002
:1081E000CB07CDE90600039009D41D491D4BC87F7C
:1081F000E77F988101201C6099609F801060194979
:1082000002AA04F12000FFF701FF10B1002009B01D
:10821000F0BD94F820101448019102F097FD0199E7
:1082200002460120FFF7F6FE0028EFD194F8200067
:108230000121FFF7EDFE0028E8D10B4802F0E0FD38
:10824000628EA68595424FF0010094BF521B921A90
:10825000628684F8230009B0F0BD00BFB07E002024
:1082600044850020B47E0020C87E0020F0B50023A5
:1082700061F30F032D4D044661F31F4389B003637F
:10828000FA21284602F066FDE68D2949278D086807
:10829000049706EB860303EB830300229B00059201
:1082A000ADF8143094F8213002928DF80830C307ED
:1082B000CDE9062203920BD41E4BE27F95F89B0674
:1082C0009A8005F27C6501221C609D6098810A609D
:1082D000184902AA04F12000FFF798FE10B100200F
:1082E00009B0F0BD94F820101048019102F02EFD65
:1082F000019902460120FFF78DFE0028EFD194F886
:1083000020000121FFF784FE0028E8D1074802F091
:1083100077FD638EA7859E424FF0010094BF9B1BA3
:10832000DB1A638684F8230009B0F0BDC87E002004
:10833000B07E0020B47E002030B50B888D88112BD4
:1083400085B0044605D0262B33D0102B25D005B0A0
:1083500030BD436AEB40DB07F9D52E4801F0DEF86B
:108360000028F4D1636A94F82310012202FA05F57B
:1083700023EA050363620029E9D194F82230002B37
:10838000E5D0238E23486386FA2102F0E3FCE28DD8
:10839000218D2046FFF70EFFD9E7CB7B012BD6D1ED
:1083A000426A03FA05F515430023456280F823303D
:1083B000CDE70B7A012BCAD1002380F823304FF48C
:1083C000FA71144802F0C6FC238E5BB1658E95B13C
:1083D000A36B0BB19847658E618D2A462046FFF747
:1083E000E9FEB4E7A36B03B19847618D00222046F4
:1083F000FFF7E0FEABE7074802F016FD626B002ACC
:10840000A5D0009503AB29462846039512F03EFB04
:108410009DE700BFC87E002075DF704710B44FF0A5
:1084200010144FF448010022C0E90041C0E90222C3
:108430005DF8044B704700BF014800F075BE00BFF7
:10844000B8850020F8B500250D4F2E4601E0142D0B
:1084500014D0A9B2384602F0BBFC0135044600280E
:10846000F5D000F00FFD0028F1D0204600F014FDFB
:10847000022804BF0136F6B2142DEAD13046F8BD09
:10848000C87E002070B58E881B480C4694B03146DB
:1084900002F09EFC23881A2B05D01F2B1CD0102B1A
:1084A0000FD014B070BD054600F0EEFC0028F8D0E7
:1084B000284600F0EBFC0028F3D1284600F04CFDE4
:1084C000EFE7694600F030FD0028EAD06A46314601
:1084D0000A4801F0BBFBE4E754F8080F61686B46FB
:1084E00003C33046BDF80030ADF802306946FFF7EF
:1084F00093FF14B070BD00BFC87E0020E87E00204E
:10850000AADF7047ABDF7047ACDF7047ADDF704765
:10851000AEDF7047B0DF704710B5044B044640F83B
:10852000043B01F033FF204610BD00BFFC340400C3
:1085300010B5054B044640F8043B01F027FF2046E8
:1085400011F076FD204610BDFC34040070B57B4B65
:1085500004461B68836196B0043001F04BFF94F829
:108560002E30A06913F0320208BF84F82F2013F0D8
:108570000C0308BF84F830300DF10102694601F0A8
:10858000FBFE94F82F209DF8010015070DD09DF8F3
:10859000001002F00F0301F00F059D424FEA121286
:1085A0006DD243EA021284F82F2094F83030190774
:1085B0000BD003F00F0100F00F058D424FEA1313AB
:1085C00069D241EA031384F8303094F82E1011F088
:1085D000300340F096800FAD0F93C5E90133C5E934
:1085E00003338DF83C10AB610021ADF809109DF804
:1085F0000A10206A1493012363F342018DF80820C6
:108600008DF80A1008B1037873BB94F8263013B1C3
:1086100004F12603129394F831200023D207089323
:10862000079358BFE38AADF81C3004F1080004F149
:108630002F01CDE9050154BF1846E08AADF82000AE
:10864000294604F13203E569099505AA0020FFF7E0
:1086500057FF054628B994F8253043BB237D002BEE
:1086600064D0284616B070BD109018F098FB02AB8D
:1086700080B2ADF84400ADF846001393C5E74FEA69
:10868000111101D191428CD30A462B4643EA0212C2
:1086900084F82F2089E74FEA101001D1984290D337
:1086A0000346294641EA031384F830308DE7ADF8DC
:1086B0000D009DF80E2094F82F600C90012363F3B9
:1086C000420242F608118DF80E208DF8123004AAED
:1086D0000223ADF8101003A90D90ADF83030ADF8BD
:1086E00034300A9204F124030B910DF102020AA91D
:1086F0008DF80C600E93FFF705FF0028AED00546FD
:10870000AFE70F4B8DF805200FAD1B788DF80430C7
:10871000022000230F938DF80600C5E90133C5E957
:108720000333AB618DF83C1001AB5DE72146054892
:1087300000F0B6FE284616B070BD00BFC47E002013
:10874000F0340400088300202DE9F0410B888E8866
:10875000502B8AB00C46054609D0512B04D18B7999
:10876000012B19D0022B26D00AB0BDE8F081CB88AE
:10877000428E9A4235D0EA8E9A42F5D16B6D002B2B
:10878000F2D095F84420648A920700F18A8022464C
:10879000294630469847E7E7836C002BE4D090F8F1
:1087A0004420520701F108076CD43A462946304666
:1087B0009847A379D6E7A27B042A46D0062A20D080
:1087C000012AD1D1EB6C002BCED095F844201707AD
:1087D00004F1080400F1A580224629463046984756
:1087E000C2E7076D002FC6D090F84430D90768D48F
:1087F00004F11208238A424629463046B847E388E6
:10880000B9E7EA6B002AAFD0002202A93046CDE9D1
:108810000222CDE90422ADF80C208DF80830FFF7D4
:1088200079FE2C6D54B195F84430D80700F1928050
:10883000B5F84230EA6B30462946A047E86B0FF0A6
:10884000B1F80023C5E90F338EE7E86B002878D034
:10885000B5F84010278A628A07EB020C00234FF01C
:10886000020E8C45CDE90633CDE908338DF818E0CA
:1088700039DD40F20913ADF81C3006A93046FFF788
:1088800049FE71E703211A46009106AB08213846DC
:10889000CDE90665089712F0F9F8002889D1AB6C8C
:1088A00083E7032000211A46009006AB0846CDE975
:1088B0000665089412F0EAF800287FF455AF6B6D56
:1088C00065E7218A069604F11208042300933A46CC
:1088D000404606ABCDE90881079512F0D7F800288D
:1088E0008DD12F6D86E79DF81EC0ADF81C3004F1C8
:1088F00014014CF001033844ADF822208DF81E30ED
:108900000991ADF8207017F013FB238A618AB5F83E
:1089100042200B449BB2934238BF1346A5F8423025
:10892000ABE703211A46009106AB0E212046CDE9A4
:108930000665089412F0AAF800287FF415AFEB6CD6
:108940004AE74FF480600FF013F84FF48061C5E9F7
:108950000F017FE7E86BB5F84210069604230093F9
:10896000224606ABCDE90750099112F08FF8002896
:108970007FF464AF2C6D5BE72DE9F04F0F464FF6A7
:10898000FF718F4289B0064615461C4626D0F18AF3
:1089900096F82E308C4228BF0C46DB0615D40DF11C
:1089A000100B8C4228BF0C464FF00008718EADF8BA
:1089B00010405A464FF6FF700595ADF81280FFF74C
:1089C000A3FD404609B0BDE8F08F3948394602F0B2
:1089D000E7F908B1F18E31B9F18AE0E7344802F0E5
:1089E000EBF90746D3E7002002230DF1100BADF899
:1089F0001200ADF810305A460DF10E0338460593BB
:108A0000FFF784FD43F2014398424FD000284AD13A
:108A10009DF80E8008F00108B8F1000F46D02448F8
:108A2000394602F0D5F98246A0B300F037FA033890
:108A300083B2002CC5D0CDF804804FF000099846D1
:108A400005E0BDF80E30E41AA4B21D4444B350460C
:108A500000F038FAA04503464246594628BF224650
:108A60003846BBB1ADF80E204FF00102738E8DF881
:108A700012200DF10E02CDE90625CDF813908DF8E8
:108A80001790ADF81030FFF743FD0028D9D05046BD
:108A900000F022FA4FF00008404609B0BDE8F08F20
:108AA000DDF804808DE700F00108B5E7F18A78E78A
:108AB000C87E002070B44E68164A86600260D1E914
:108AC0000262154B154D1C78456002611425002289
:108AD0000321C0E90F22C0E91222C0E91422C660B6
:108AE000C58280F8311080F84420027582610262EC
:108AF0008284C0F82620C0F82A2080F82E20C26187
:108B000042864263028780F82F4080F8304070BC74
:108B1000704700BFFC340400F03404004435040006
:108B20008069704780F82E10704700BFC18270477F
:108B300080F82F1080F83020704700BF90F8443044
:108B4000016562F3000380F84430704701627047AA
:108B500051F8322F026049684160704790F82E301A
:108B600013F0100301D11846704730B5044685B0A4
:108B700011480D4602F014F910B1E18E11B9084602
:108B800005B030BD0DF1060328460024022502AAD7
:108B90000393ADF80A40ADF80850FFF7B7FC43F275
:108BA0000143984206D008B99DF8060000F0010084
:108BB00005B030BD2046E3E7C87E002010B490F831
:108BC0002E4014F0100403D05DF8044BFFF7D4BE20
:108BD00020465DF8044B7047A1DF7047A3DF704764
:108BE000A4DF704700238383704700BF006A00F052
:108BF000E3B800BF808B70472DE9F0410B88CE8829
:108C0000382B86B00C46054606D0392B66D0362B5D
:108C100043D006B0BDE8F08100F12407002E36D124
:108C20000A8A3846314602F031FE94F80C80B8F1D9
:108C3000010F2CD0B8F1040FEBD1286A00F0BCF87A
:108C400001465C4802F0C4F800F028F92A8E053885
:108C500083B2934228BF1346002B00F09A80218AEA
:108C6000E289286AAC8B8DF80D600A44E96A0591A7
:108C70008DF80C80ADF81230ADF81020ADF80E4034
:108C800000F09AF803A9FFF7A9FF0028C1D03846E1
:108C900002F014FE06B0BDE8F081006A00F08CF826
:108CA0000146444802F094F800F0F8F807466EBB1D
:108CB00005F12406E289304604F1100102F0E6FDD8
:108CC0002B8E2BB1F81EE38980B20138834255DA2E
:108CD000304602F0F3FD06B0BDE8F0810B7B012BBE
:108CE0001AD0022B95D1836B002B92D090F83C20A8
:108CF0008F8892071FD401F11006E2893146284679
:108D0000984761893846FFF76BFF82E705F1240732
:108D1000384602F0D3FDBDE7436B002B3FF479AF3B
:108D200090F83C20D10717D404F11006E2893146AF
:108D3000284698476DE7C989039004F1100603207F
:108D40001A46009003AB3046CDE9046111F09EFE57
:108D50000028D6D1AB6BD0E7E189039004F110066F
:108D600003201A46009003AB3046CDE9046111F0B0
:108D70008DFE00287FF44DAF6B6BD7E7286A00F0BB
:108D80001BF86A8EA98B92B2FFF726FF00289FD1AD
:108D90003FE7AA8B286AADF80E2040F20511ADF826
:108DA0000C10CDE9043300F007F803A9FFF716FF14
:108DB0006DE700BFC87E0020808870478FDF704756
:108DC00090DF7047B1DF7047B5DF704710B5074BD4
:108DD00003600446806A0FF065FCE06A0FF062FCF5
:108DE000206B08B10FF05EFC204610BD1435040066
:108DF00010B5094B03600446806A0FF053FCE06A2B
:108E00000FF050FC206B08B10FF04CFC204611F025
:108E10000FF9204610BD00BF1435040070B504469C
:108E20000D4692E80300A5800E0CA061A183144DAD
:108E3000A67717201B2156892560E0809589D08967
:108E4000E181D1796581012222752274A08161744A
:108E50001846194626819DF810500EF04DFE294601
:108E6000A06228460EF048FE4FF4885100234FF6CA
:108E7000FF72E182E062628223636375204670BD07
:108E800014350400007D7047407D7047C07D113867
:108E900018BF0120704700BF407C7047C0887047F2
:108EA000008970474B7D10B44BB11F310C688A8824
:108EB0008B79046082805DF8044B837170471831B0
:108EC000F4E700BF08B56621806A0FF06FFA00383A
:108ED00018BF012008BD00BF08B500231A46194677
:108EE000806A0EF03BFE003818BF012008BD00BFAD
:108EF000818800F11F02407C02F026BD38B50A4689
:108F000005460C468188407C02F00AFD214601207E
:108F100051F8483FC5F81F308B888A7985F825209D
:108F2000A5F82330687538BD38B50A4604460D46A5
:108F300000F11801407C02F03DFD607550B12946FA
:108F400051F8483FC4F81F308B888A7984F825206F
:108F5000A4F8233038BD00BF10B5447D24B100F122
:108F60001F01407C02F004FD204610BD70B50B8847
:108F7000113B82B00C460546462B2BD8DFE803F0A8
:108F8000383B2A2A2A2A2A2A2A422A2A2A2A2A2A0A
:108F900050585E642A2A2A2A2A2A2A2A2A2A2A2A6F
:108FA0002A2A2A2A2A2A2A2A2A672A942A2A2A2A7A
:108FB0002A2A2A2A2A2A2A2A2A2A2A2A2A2A2A2A11
:108FC0002A246A2A752C84000023A8881A46194688
:108FD000FFF7F8FE02B070BD8B79002BFAD1006B61
:108FE000AB750028F6D01A4619460EF0B7FDF1E72A
:108FF00000230375EEE74B8903818B894381CB897D
:109000008381E7E70B7AC375112BE3D0818800F1E8
:109010001F02407C02F086FD03460028DAD1D4E727
:10902000002301A98088ADF80430FFF7C7FED1E71F
:109030000B7A002BCED14B7A0374CBE7002211467A
:109040008088FFF7BDFEC5E70B89C381C2E74B8966
:10905000C380BFE7006B0123AB750028BAD00023A3
:109060001A4619460EF07AFDB4E7417C164801F025
:10907000A7FEE3880146994228BF194689B2A8880D
:10908000E980FFF7A1FEA5E78B79002BA2D000268F
:1090900000231A461946A86A0EF060FD0136A2792F
:1090A000F3B29A42F4D895E78B7A002B92D000263F
:1090B00000231A461946E86A0EF050FD0136A27ADE
:1090C000F3B29A42F4D885E7C87E002070B58AB022
:1090D00086880B4606A84FF42851144605934FF690
:1090E000FF7501F05BF90120CDE90105059B0094B6
:1090F000314606AA044800F06FF8044606A801F0BD
:1091000045F920460AB070BD0883002010B504461A
:10911000043002F057FB034B2360002323752046E5
:1091200010BD00BF0100FFFF017D01B1704710B508
:109130000446043002F050FB0123237510BD00BF2C
:10914000007D70470B88322B10B504D0332B17D01D
:10915000302B08D010BDCB88DBB1041D2046BDE804
:10916000104002F0ABBBCB88041D002BF6D14B891D
:10917000002BF3D00A3120460A2202F087FBEDE7EC
:10918000CB88002BE9D14A89002AE6D002EB4202C3
:1091900004E04A89002AE0D002EB82025200041D5A
:1091A000023292B20A31204602F070FBD6E700BFCD
:1091B000A0DF704710B5044600F5F87002F002FB1E
:1091C0002046F822002116F0DBFEF822A01800212C
:1091D00016F0D6FE204610BD2DE9F04782B00546B8
:1091E000BDF82C60BDF830402048ADF80460BDF8F3
:1091F00028A0ADF80640904699460F4601F0E8FDDC
:1092000005F5F875064603E0FFF74AFE0EF094FBFD
:10921000284602F039FB04463046002CF4D10121E7
:10922000284602F0D9FA52464946284602F0F0FA9A
:1092300008F10401384601AAFFF7BAFF30B1284609
:1092400002F0D4FA204602B0BDE8F0874FF4FA717C
:10925000284602F0E3FA20EAE074284602F0C6FA53
:10926000A4B2204602B0BDE8F08700BFC87E00204F
:109270002DE9F04F8F880D8885B088460446394621
:10928000864801F0A5FDA5F11003012B814640F2AF
:10929000908094F854203AB3002633461633502D6C
:1092A00054F823A069D0512D1AD198F80630B8F897
:1092B00008B0022B53D0BBF1000F11D051466846C5
:1092C000FFF746FCBDF800305B4559D0514602A877
:1092D000FFF73EFCBDF80C305B4551D094F85420AC
:1092E0000136F3B29342D9D394F84C31002B00F0FD
:1092F000D18004F5A679002604E094F84C310136BB
:10930000B34220DD59F8040FFFF770FCB842F4D1E6
:10931000382D03D0392D01D0362DEED1B8F80AA062
:10932000BAF1000FE9D0D9F800B05846FFF762FC57
:109330005045E2D158464146FFF75EFC94F84C3167
:109340000136B342DEDC112D55D0352D04D1B8F8ED
:109350000A30002B40F08F8005B0BDE8F08F98F800
:109360000E30062BA7D1DAF800305046DB684146B4
:1093700098474846FFF78AFDB0E7B8F806B09AE785
:10938000DAF800305046DB68414698474846FFF718
:109390007DFD0028A2D0502DA0D1514602A8FFF794
:1093A000D7FBBDF80C305B4598D14846FFF7A0FDD0
:1093B00094E72378002B3FF46CAF0026112D334641
:1093C0000CD004EB83033946586803685B68984700
:1093D00001362278F3B29A42F3D85AE704EB8303BA
:1093E0003946586803681B68984701362278F3B2FB
:1093F0009A42F3D84DE7D3B10026334605E094F8FE
:109400004C210136F3B29A4211D904EB8305D5F809
:109410005001FFF7EBFBB842F1D1D5F85001FFF74F
:10942000E1FB013694F84C21F3B29A42EDD894F85E
:10943000F820002A90D000252B4604EB8303D3F8B4
:10944000FC008388BB420AD00135EBB2934283D241
:1094500004EB8303D3F8FC008388BB42F4D1036898
:109460001B689847013594F8F820EBB29342E4D397
:1094700005B0BDE8F08F04F5F874B8F80C2020466C
:1094800008F1100102F002FA204605B0BDE8F04FE5
:1094900002F014BA112D7FF458AFC8E7C87E00203F
:1094A00090F85420272A0CD810B4034602F1160471
:1094B000013280F8542043F8241001205DF8044B59
:1094C00070470020704700BF0378132B06D800EBCD
:1094D0008302013303700120516070470020704700
:1094E00078DF70477ADF7047054A034692E8030049
:1094F000002283E80300C3E902221846704700BF38
:109500001C35040008B5FFF7EDFF08B1002008BDC9
:10951000FFF7E6FFB0FA80F0400908BDF8B5002576
:109520000D4F2E4601E0142D14D0A9B2384601F09B
:109530004FFC013504460028F5D0FFF7A3FC0028B6
:10954000F1D02046FFF7A8FC012804BF0136F6B28F
:10955000142DEAD13046F8BDC87E002081607047E6
:10956000C1607047704700BF8ADF704730B40D4C50
:10957000C4621F25002250248584A025C0E9112241
:10958000C0E90F22A0F84650A0F84840006230BC65
:109590008262028680F838204263C264A0F85020BC
:1095A000704700BF000180002DE9F04F10468DB0DC
:1095B00016460C4600F00EFFC5B2102D4FD0B6680F
:1095C00007220623A16994F81C9001918DF80D20C3
:1095D0008DF80C30ED080DF10C080DF10E0A002786
:1095E000B9F1010F0A97CDE90477CDE90677CDE906
:1095F0000877CDF82B700ED998F8000001994B46EA
:109600004A7882420FD00A78D4432344013213F0BF
:10961000FF031144F4D108F10108C245E0D1002054
:109620000DB0BDE8F08F11F8024B013CE4B22246C8
:1096300004A816F07DFC0DF1100B1CB9EBE714F03B
:10964000FF04E8D058462A46314616F063FC641BF6
:10965000AB440028F3D101200DB0BDE8F08F0436F3
:1096600003220223AEE700BF2DE9F0430B888E886A
:10967000103B87B00D4604460D2B2CD8DFE803F0D5
:1096800077072B2B2B2B2B2B2B2B2B842B2E836A0F
:10969000F340DB071FD55648FEF7D4FED8B9A36ABE
:1096A00094F82C20012505FA06F623EA0606A662A0
:1096B0008AB994F82D3073B11F232462A38404F176
:1096C000200104F14400FFF74FFF20B9494801F0A1
:1096D00097FB84F82C5007B0BDE8F08390F92E205A
:1096E00091F91B309A423ADC90F8383001F10808C1
:1096F0000BB3DFF80491002602E0D6B2B34218D9CA
:10970000636BCDF8089003EB061302AA5968039126
:10971000D3E902734146204605930497FFF744FFBF
:10972000074602A800F032FE94F83830721C002F71
:10973000E3D09E4213D094F82F30002B49D095F8F7
:109740002430012B0BD9296A4A78FF2A30D00A78B5
:10975000D0430344013213F0FF031144F4D104F168
:1097600020010020FFF700FF07B0BDE8F083CB7BAE
:10977000022BB0D1836A012202FA06F6334300229B
:10978000836280F82C20A6E70B7A012BA3D1002559
:1097900080F82C50174801F047FB226C002A9AD021
:1097A000009502AB29462846029511F06FF992E721
:1097B00011F8025B6A1ED2B2022A28BF022202A856
:1097C00016F0B6FB012DCAD0228EBDF808309A42A1
:1097D000C5D1E26B002A3FF47EAF012300934046DF
:1097E00002AB2421CDF8088011F050F973E700BFD7
:1097F000D87E0020C87E00204435040046DF704734
:109800007FDF704780DF704781DF704785DF7047FB
:1098100086DF704738B51C460D460346114628467C
:109820002246984734B1014600222846BDE8384018
:10983000FFF7E8BF38BD00BF10B50C4682B0034645
:109840006946204698476A4620460121FFF7DAFF1D
:1098500002B010BD10B50446083002F08DFB074B76
:109860002360032200232271C4F81034C4F8143496
:10987000C4F81834C4F81C34204610BD3507100352
:1098800030B50446ADF55F7D00F108058F4802F064
:1098900007FB0821284602F073FB684602F07AFBBA
:1098A0006846082102F07AFB6946284602F018FB58
:1098B00004F54F714122684602F07EFB684602F0D3
:1098C00077FB94F85C0394F85B2394F83D1394F8C9
:1098D0003E3384F83D0384F83E2394F85A0394F809
:1098E000592394F83F5384F85C1384F85B3394F85D
:1098F000401394F8413384F83F0384F8402394F8EC
:10990000580394F8572384F85A5384F8591394F859
:10991000425394F8431384F8410384F8583394F87D
:10992000560394F8443384F8422394F8552384F87A
:10993000575384F8430384F8442384F8553384F858
:10994000561394F8451394F8540394F8532394F859
:10995000463384F8450384F8462394F8520394F878
:10996000512394F8475384F8541384F8533394F8EC
:10997000481394F8493384F8470384F8482394F84B
:10998000500394F84F2384F8525384F8511394F8F9
:109990004A5394F84B1384F8490384F8503394F8ED
:1099A0004E0394F84C3384F84A2394F84D2384F8FA
:1099B0004F5384F84B0384F84C2384F84D3384F8D8
:1099C0004E1394F85D1394F87C0394F87B2394F879
:1099D0005E3384F85D0384F85E2394F87A0394F888
:1099E000792394F85F5384F87C1384F87B3394F8DC
:1099F000601394F8613384F85F0384F8602394F86B
:109A0000780394F8772384F87A5384F8791394F8D8
:109A1000625394F8631384F8610384F8783394F8FC
:109A2000760394F8643384F8622394F8752384F8F9
:109A3000775384F8630384F8642384F8753384F8D7
:109A4000761394F8651394F8740394F8732394F8D8
:109A5000663384F8650384F8662394F8720394F8F7
:109A6000712394F8675384F8741384F8733394F86B
:109A7000681394F8693384F8670384F8682394F8CA
:109A8000700394F86F2384F8725384F8711394F878
:109A90006A5394F86B1384F8690384F8703394F86C
:109AA0006E0394F86C3384F86A2394F86D2384F879
:109AB0006B03012084F86F5384F86E1384F86C23D1
:109AC00084F86D330DF55F7D30BD00BF54860020F6
:109AD0000B7803F0FE03042B01D00020704770B513
:109AE00015468CB00C462022002104A816F048FA36
:109AF00028686968AA68EB686D460FC59DF8001074
:109B00009DF80F209DF801609DF80E509DF8020011
:109B10008DF80F1023469DF80D108DF800209DF84C
:109B200003208DF80E608DF801509DF80C609DF8B3
:109B300004508DF80D008DF802109DF80B009DF873
:109B400005108DF80C209DF80A208DF803608DF823
:109B50000B508DF804008DF805208DF80A109DF843
:109B6000061033F8042FADF810209B789DF80920DB
:109B70009DF81D009DF810609DF81F508DF809108C
:109B80008DF806209DF811109DF81E208DF81D30CF
:109B90009DF807308DF812008DF81F609DF80800C1
:109BA0009DF813608DF810508DF81E109DF81C5014
:109BB0009DF814108DF811208DF808309DF81B20A9
:109BC0009DF81A308DF807008DF81C608DF8135041
:109BD0009DF815608DF81B108DF8142068468DF8DF
:109BE00015309DF819109DF817209DF818309DF834
:109BF00016508DF818208DF816108DF817308DF846
:109C00001A608DF81950FFF7F9FD62789DF82F3032
:109C10009DF82E009DF82D108DF821009A428DF8A8
:109C2000221004F1010404D0012080F001000CB0E6
:109C300070BD6278C3B29A4204F10104F4D1627833
:109C4000CBB29A42F0D10020EFE700BF08B5137CF9
:109C5000DB0758BF1C32084602F11201FFF7D6FDA0
:109C6000B0FA80F0400908BDF0B58F880E46ADF51A
:109C70006B7D04463946464801F0AAF83388133B09
:109C80000546072B2FD8DFE813F03E005F006D007C
:109C90002E002803870008003100337AB3B9737BA4
:109CA0009B070ED4294602A8FFF7FCF80299BDF8DD
:109CB0000C209DF80E3084F80C34C4F80614A4F877
:109CC0000A24284604F2BE31FFF718F9D4F8182404
:109CD0004AB1307A0D9002230021009308460CAB64
:109CE0000C9710F0D3FE0DF56B7DF0BDD4F81C245D
:109CF000002AF8D001230021009308460CAB0C97F2
:109D000010F0C4FEEFE704F2BE3304F2DA320C9333
:109D100004F2F63300251092119304F23D3204F25E
:109D20007E330F921393CDE90D551295FFF7B4F8DA
:109D300001280CBF22462A460CAB29463846FFF7BD
:109D40005FFD0DF56B7DF0BD0CA9FFF7EDF8034647
:109D5000002800F0D2820CA9384600231AAAFFF787
:109D600057FDC0E7D4F810140029BCD0B37B094AD2
:109D700003F001030F930423CDE90C1706F108004B
:109D8000009306210CAB0E9010F080FEABE700BFF5
:109D9000C87E00201598020094F87E3394F89D2325
:109DA00094F87FC394F89C6394F8805394F89B03D1
:109DB00084F89D33042194F89A3384F87D1384F851
:109DC0007E2394F8811394F8822384F89CC384F84A
:109DD0007F6394F899C394F8836384F89B5384F861
:109DE000800394F8985394F8840384F89A1384F8C1
:109DF000813394F8971394F8853384F8992394F871
:109E0000962384F882C384F8986384F8835384F893
:109E1000970384F8841384F8852384F8963394F8A0
:109E2000862394F8953394F887C394F8946394F850
:109E3000885394F8930394F8891384F8952384F84D
:109E4000863394F8922394F88A3384F894C384F880
:109E5000876394F891C394F88B6384F8935384F8E0
:109E6000880394F8905394F88C0384F8921384F840
:109E7000892394F88F1394F88D2384F8913394F800
:109E80008E3384F88AC384F8906384F88B5384F803
:109E90008F0384F88C1384F88D3384F88E2394F820
:109EA0009E2394F8BD3394F89FC394F8BC6394F850
:109EB000A05394F8BB0394F8A11384F8BD2384F84D
:109EC0009E3394F8BA2394F8A23384F8BCC384F880
:109ED0009F6394F8B9C394F8A36384F8BB5384F8E0
:109EE000A00394F8B85394F8A40384F8BA1384F840
:109EF000A12394F8B71394F8A52384F8B93394F800
:109F0000B63384F8A2C384F8B86384F8A35384F802
:109F1000A41384F8B62384F8A53384F8B70394F81F
:109F2000A60394F8B51394F8A72394F8B43394F8DF
:109F3000A86394F8B35384F8B50384F8A61394F88F
:109F4000A90394F8B21384F8B42384F8A73394F8DF
:109F5000AA2394F8B13384F8B36384F8A85394F82F
:109F6000AB6394F8B05384F8B20384F8A91394F85F
:109F7000AC0394F8AF1384F8B12384F8AA3394F8AF
:109F8000AD2394F8AE3384F8AD3384F8AE2384F86F
:109F9000B06384F8AB5384F8AF0384F8AC130CA817
:109FA00001F0F8FF0CA8082101F0F8FF04F27D3160
:109FB0000CA8412202F012F80CA904AA202304F1F3
:109FC000080001F0BBFF0CA801F0F2FF9DF8101093
:109FD0009DF82F009DF811309DF82E209DF81260FD
:109FE0009DF82D508DF810008DF82F109DF813005E
:109FF0009DF82C108DF811208DF82E309DF814202E
:10A000009DF82B308DF812508DF82D609DF815506D
:10A010009DF82A608DF813108DF82C009DF816100D
:10A020009DF829008DF814308DF82B209DF81730FD
:10A030009DF828208DF815608DF82A508DF81600AF
:10A040008DF817208DF828308DF829109DF81810FC
:10A050009DF827009DF819309DF826209DF81A607C
:10A060009DF825508DF818008DF827109DF81B00DD
:10A070009DF824108DF819208DF826309DF81C20AD
:10A080009DF823308DF81A508DF825609DF81D50ED
:10A090009DF822608DF81B108DF824009DF81E108D
:10A0A0009DF821008DF81C308DF823209DF81F307D
:10A0B0009DF820208DF81D608DF822508DF821101C
:10A0C0008DF81F208DF820308DF81E0094F87E0347
:10A0D00094F89D1394F87F2394F89C3394F880634C
:10A0E00094F89B5384F89D0384F87E1394F88103BD
:10A0F00094F89A1384F89C2384F87F3394F882238D
:10A1000094F8993384F89B6384F8805394F88363BC
:10A1100094F8985384F89A0384F8811394F884038C
:10A1200094F8971384F8992384F8823394F885235C
:10A1300094F8963384F8986384F8835384F88413EE
:10A1400084F8962384F8853384F8970394F886037B
:10A1500094F8951394F8872394F8943394F88863CB
:10A1600094F8935384F8950384F8861394F889033C
:10A1700094F8921384F8942384F8873394F88A230C
:10A1800094F8913384F8936384F8885394F88B633C
:10A1900094F8905384F8920384F8891394F88C030C
:10A1A00094F88F1384F8912384F88A3394F88D23DC
:10A1B00094F88E3384F8906384F88B5384F88C136E
:10A1C00084F88E2384F88D3384F88F0394F89E03EB
:10A1D00094F8BD1394F89F2394F8BC3394F8A063CB
:10A1E00094F8BB5384F8BD0384F89E1394F8A1033C
:10A1F00094F8BA1384F8BC2384F89F3394F8A2230C
:10A2000094F8B93384F8BB6384F8A05394F8A3633B
:10A2100094F8B85384F8BA0384F8A11394F8A4030B
:10A2200094F8B71384F8B92384F8A23394F8A523DB
:10A2300094F8B63384F8B86384F8B70384F8A413A9
:10A2400084F8B62384F8A53384F8A35394F8A6536E
:10A2500094F8A72394F8B43394F8B50394F8A813AA
:10A2600094F8B36384F8B55384F8B42394F8A953ED
:10A2700094F8AA2384F8A73394F8B13394F8B0C3C0
:10A2800084F8A60384F8B31394F8B20394F8AB13DC
:10A2900084F8A86384F8B25394F8AC6394F8AF538D
:10A2A00084F8B12384F8AA3394F8AD2394F8AE333C
:10A2B00084F8A90384F8B013384604A984F8ABC322
:10A2C00084F8AF6384F8AC5384F8AE2384F8AD33DC
:10A2D000FFF79AFA0DF56B7DF0BDD4F81424002A2F
:10A2E0003FF401AD0223002100930C920CAB064A0F
:10A2F0000D97084610F0CAFBF5E438461A46194691
:10A30000FFF786FAEFE400BF39980200A8DF704734
:10A31000704700BF30B5044683B0083000F06AF8DB
:10A3200004F10C010DF106020120FFF7EFFF0546D5
:10A3300028B9044B04481C602146FFF7C5F828469D
:10A3400003B030BDC47E00200883002030B44C68C8
:10A35000C460D1E90241054A054D0260054A8560A5
:10A36000C0E90441426030BC704700BF2C35040096
:10A37000443504000000111183790B70C379137008
:10A38000704700BF62DF704763DF7047704700BFF0
:10A3900010B504460FF04CFE204610BD10B4054C1D
:10A3A0008180002201210460C0E902225DF8044B93
:10A3B0008171704744350400002210B4044C0460DD
:10A3C00081605DF8044B82718280C260704700BF7B
:10A3D000443504008379012B0AD0826832B9C268FF
:10A3E00022B9012B8CBF802000207047802070474D
:10A3F000102070472DE9F047857982B0002D47D1B4
:10A40000C7680646002F47D010200DF0B1FA8246EB
:10A41000384616F0C4FC441E30B3DFF88490A846DA
:10A4200004E00134023C1FD4102D1DD017F804C0E5
:10A43000BCF12D0F07EB0402F3D099F80030ADF812
:10A4400005808DF8043012F8013C8DF8043010229C
:10A45000002101A88DF805C016F05CFD6B1C023CC4
:10A460000AF80500DDB2DFD5C6F808A0BAF1000F82
:10A470000ED0B11D5046FFF785FFB168321D102088
:10A48000FFF782FFB0FA80F0400902B0BDE8F08724
:10A49000012002B0BDE8F087D0F808A0E6E700BFD1
:10A4A000383504004DDF70474EDF70474FDF70478F
:10A4B00050DF70474BDF704710DF70477CDF70471D
:10A4C0007DDF704760DF704769DF704761DF70478D
:10A4D00066DF704767DF7047704700BF0C2010F0E1
:10A4E00037BD00BF30B5224C224D83B0D4F82807C9
:10A4F0004FF0FF310DF05AFF0028F7D0C5B101A889
:10A50000FFF7D8FF0528F1D00028F8D1019B032BD5
:10A510001BD8012BF3D918460CF0F0FFEFE70A2BFC
:10A5200004D0092B21D00B2B02D1012005F0DAFF3A
:10A5300001A8FFF7BFFF0528D8D00028F8D1019B5C
:10A54000A3F10902022AF3D8E9E7A3F10902022ADA
:10A55000D5D80A2B04D0092B05D00B2BCFD1012045
:10A5600005F0C0FFCBE70220FAE70220DEE700BFDC
:10A57000C87E0020FD7403002DE9F04F2DED028B05
:10A580004FF4FA7089B00DF0F3F9B24E00F1080300
:10A5900008EE103A054606F5F06706F5C86AD6F8E3
:10A5A00024074FF0FF310DF001FF0028F7D04FF4E2
:10A5B000FA730DF116012846ADF81630FFF786FF45
:10A5C00010B10528F3D1EAE7B5F80490B9F1130FFB
:10A5D00000F2398106EB8903D3F834473CB12946B0
:10A5E0002046FEF7C3FC9C482946FFF73DFB2B881D
:10A5F000013B1B2B5AD8DFE813F016015900590014
:10A600005900590059005900590059005900590082
:10A610005900590059005900B4001C005900590054
:10A620005900590059005900590059005900590062
:10A63000A200DFF838824FF0000B58F8040F30B159
:10A64000FEF720FC18B10BF1010B5FFA8BFBB8454C
:10A65000F3D1BBF1000F06D196F830371BB1594644
:10A660000C2010F057FC2046FEF716FC012800F0E5
:10A67000EC80F26962B10223002195F808C00093D2
:10A68000084606ABCDF81890CDF81CC010F0FEF9C6
:10A6900009F5E67806EB8803586810B103685B6833
:10A6A000984706EB88080023C8F80430294650462E
:10A6B000FDF742FE69482946FEF7D6FFB6F8323765
:10A6C0004B452B8800F0B480102B1ED02CB32046B5
:10A6D000FEF7E2FB012803D15E482946FEF742FF60
:10A6E0002046FEF7D9FB02281BD05D48FEF728FD67
:10A6F00000BB5C482946FEF7BBFDD6F88837002B27
:10A700003FF455AF2846984751E7EB7B012BDDD14D
:10A71000AB88A6F83237002CD9D14E482946FEF72F
:10A7200021FF51482946FDF7ADFE4D48FEF708FDD3
:10A730000028DED04A482946FEF704FDD9E7D6F8BE
:10A740008427002AB2D00223002195F908C0009383
:10A75000084606ABCDF81890CDF81CC010F096F95D
:10A76000A4E74FF00008D6F82C07CDF80080434648
:10A77000424603213D4C0FF093F954F8040F30B1D9
:10A78000FEF780FB18B108F101085FFA88F8BC42B7
:10A79000F3D196F830376BB1B8F1000118BF012141
:10A7A0000C2010F0B7FB96F830371BB101210C20BC
:10A7B00010F0B0FB09F5E67806EB8804606820B17C
:10A7C00003685B68984700236360EB7B012B0BBF3A
:10A7D00096F8123796F8183796F8134796F81947EF
:10A7E000039334200FF022FC06EB8808039B0094AF
:10A7F00018EE102A04464946FEF710FB2046C8F81A
:10A800000440FEF749FB012832D0B269002A3FF428
:10A810004DAF012300210093084606ABCDF81890F8
:10A8200010F034F942E700214846FFF751FE3DE7BA
:10A83000102B3FF46AAF112B7FF448AF4FF6FF7334
:10A84000A6F8323742E70446D1E6F268002A7FF4E0
:10A8500012AF1DE7C87E0020E87E0020648500203E
:10A86000B885002008830020D87E0020F8850020CD
:10A87000B268002A3FF41AAF0021009006AB0846E8
:10A88000CDF8189010F002F910E700BF38B5044673
:10A89000FEF72AFE04F11000FDF7C0FD04F12000D0
:10A8A000FEF7D8FF04F58860FEF784FC04F5C86065
:10A8B000FDF75EFC04F27C60FDF7E6FB04F29C60B1
:10A8C000FEF754FE04F5DE60FEF720FC4FF48053E3
:10A8D0000025C4F8083716481649174AC4F80C076B
:10A8E00040F20113C4F81017C4F81427A4F818375D
:10A8F000A4F81A5704F234702946502215F040FB90
:10A9000001224FF6FF73A4F81C5784F81E57C4F8B1
:10A910002457C4F82857C4F82C57C4F88857C4F8EB
:10A92000845784F83027A4F83237204638BD00BF5A
:10A93000010A17000300010117000300F0B5BF4E24
:10A9400080F81C178DB080F81D2704460FF0ECFB33
:10A950000FF0F2FB0FF0B0FB3369B949039303A882
:10A96000FFF7AAFD18B1002528460DB0F0BD012063
:10A97000FFF79AFD0120FFF795FD0120FFF796FDF7
:10A9800009A8FFF795FD099B9B0705D5AD4BD3F8AB
:10A990000435002B00F0FE800023AB4A94F80D57DD
:10A9A000049209A90120CDE909330B938DF82450B5
:10A9B000FFF78AFD0028D6D194F81D370B90CDE91A
:10A9C0000900181E18BF012094F81C578DF82700A5
:10A9D000049A8DF8263009A940208DF82550FFF7FC
:10A9E00073FD0028BFD194F80C170990034661F35A
:10A9F0000003CDE90A00049A8DF8243009A9A020AB
:10AA0000FFF762FD0028AED1D4F808370A900B900A
:10AA1000049A099309A9A120FFF756FD0028A2D1A5
:10AA200094F81C37002B40F0B98094F81D37002BA8
:10AA300048D00023B4F81477049A0993022509A991
:10AA40002320CDE90A338DF82450ADF82670FFF7A6
:10AA50003BFD002887D1CDE9090094F81D77B4F8B3
:10AA600016370B90049A8DF8245009A920208DF8F0
:10AA70002670ADF82830FFF727FD00287FF473AF6C
:10AA80000990CDE90A0094F81837049A8DF82450FB
:10AA900009A922208DF82630FFF716FD00287FF443
:10AAA00062AFCDE9090094F819370B90049A8DF83C
:10AAB000245009A921208DF82630FFF705FD002834
:10AAC0007FF451AF04A8FFF7FDFC00287FF44BAFE3
:10AAD000CDE9070040F0010307A902208DF81C30E2
:10AAE000FFF7F8FC00287FF43EAF2046FEF70AFD92
:10AAF000054600283FF437AF04F12000FEF7C0FE02
:10AB0000337D52498DF80830132202A8FFF7D6FC96
:10AB100000287FF428AF94F81D37002B40F0888080
:10AB20000322002101200CF0A5FFC4F8240700280F
:10AB30003FF419AF05AB0326CDE90063444945480E
:10AB400000234FF4A0620DF04BFF3246002101209C
:10AB50000CF090FFC4F8280700283FF404AF06ABC0
:10AB6000CDE900633C493D480023C8220DF038FF81
:10AB70003B4B4FF480021A603A4B00930023184677
:10AB800001224FF480710EF035FFC4F82C0700F05D
:10AB9000A1FEE9E6022005F0A5FCFDE60990CDE95D
:10ABA0000A00B4F80E37049AADF82630012509A939
:10ABB00023208DF82450FFF787FC00287FF4D3AEC4
:10ABC000CDE9090094F81C77B4F810370B90049A7B
:10ABD0008DF8245009A920208DF82670ADF8283072
:10ABE000FFF772FC00287FF4BEAE0990CDE90A00A1
:10ABF00094F81237049A8DF8245009A922208DF870
:10AC00002630FFF761FC00287FF4ADAECDE90900E6
:10AC100094F813370B90049A8DF8245009A9212039
:10AC20008DF82630FFF750FC00283FF4FEAE9AE680
:10AC300004F11000FDF700FC72E700BFA43504002A
:10AC4000D9A4020000700240006000208835040092
:10AC50009C35040079A50200A0350400E5A402009B
:10AC600000E100E0DDA4020000B5084B85B01B7DCB
:10AC7000019108468DF80C3016F091F8019982B2D6
:10AC800003A8FFF71BFC05B05DF804FBA435040026
:10AC900000B583B008460DF10601ADF80620FFF7B8
:10ACA0000FFC20B99DF8060003B05DF804FB0020FE
:10ACB00003B05DF804FB00BF70B4234B0E4605469D
:10ACC0000FCB85B06C4607C49DF900202380B242AB
:10ACD00034D09DF90130B34230D09DF90230B342F7
:10ACE0002CD09DF90330B34228D09DF90430B342F3
:10ACF00024D09DF90530B34220D0FEB19DF9073034
:10AD0000B3421BD09DF90830B34217D09DF90930EA
:10AD1000B34213D09DF90A30B3420FD09DF90B30E6
:10AD2000B3420BD09DF90C30B34207D09DF90D30E2
:10AD3000B34203D0002005B070BC7047012085F8F5
:10AD40001E6705B070BC7047BC35040090F91E0743
:10AD5000704700BF70B5044682B0D0F82C070D468E
:10AD60000EF0CAFE4FF47A7206460023A90DA8021F
:10AD700014F0B4FE002302460421D4F82C070093FB
:10AD80000EF08EFE0EB102B070BD0096D4F82C0706
:10AD90003346324603210EF083FE02B070BD00BF81
:10ADA000132906D800EB8101D1F8340708B1FEF76A
:10ADB00069B80020704700BFB0F83207704700BF85
:10ADC00001290CBFB0F80E07B0F81407704700BF98
:10ADD00013299ABF00EB8101D1F834070020704796
:10ADE00010B5064C0021D4F828070DF053F9D4F81B
:10ADF00024070021BDE810400DF04CB9C87E0020AA
:10AE000090F8303703B9704710B582B0D0F82C47AE
:10AE10000DF0D6FF002302460093204601210EF0DC
:10AE20003FFE02B010BD00BFF0B583B00024054660
:10AE30002346D0F82C070094224603210EF030FE62
:10AE400005F5E66605F5F06756F8040F20B1FEF744
:10AE500019F808B10134E4B2BE42F5D195F83037A3
:10AE600043B1211E18BF01210C2003B0BDE8F04002
:10AE700010F050B803B0F0BD0148FFF707BD00BFA8
:10AE8000C87E002000207047D0F8D830988980B262
:10AE9000704700BF70B582B0064608461C46019256
:10AEA000FDF73EFE019905462246D0F8D8000FF086
:10AEB000ADFE844206D9D5F8F0301BB1211A89B213
:10AEC00030469847D5F8E83023B1304602B0BDE8A7
:10AED0007040184702B070BD08B592B2D0F8D800E3
:10AEE0000FF0E2FE08BD00BF00B583B0D0F8D80077
:10AEF0000DF1070200210FF013FF20B19DF80700AC
:10AF000003B05DF804FB4FF0FF30F9E7D0F8D8004C
:10AF10000FF06ABED0F8C030988980B2704700BF89
:10AF2000D0F8C0000FF060BE10B501680C4A8C6903
:10AF3000944282B00BD1D0F8D80001220DF1070164
:10AF40000FF0B2FE40B19DF8070002B010BD012223
:10AF50000DF10701A047F5E74FF0FF30F5E700BF1F
:10AF6000D9AE020000B583B0D0F8C0000DF10702E1
:10AF700000210FF0D5FE20B19DF8070003B05DF869
:10AF800004FB4FF0FF30F9E710B550F8181C0D4ADC
:10AF90008C69944282B00CD0183801220DF107015F
:10AFA000A04718B19DF8070002B010BD4FF0FF3068
:10AFB000FAE701220DF10701D0F8C0000FF074FE8E
:10AFC000EFE700BFD9AE02002DE9F04F50F8183C72
:10AFD00083B004463F48D3F828800F461646FFF753
:10AFE000EBFE3D4B9845054609D0A4F118003346C9
:10AFF0003A462946C44603B0BDE8F04F60470146D3
:10B000003448FFF7E5FE8346002850D004F11009CC
:10B0100048462946FDF7A2FD002848D094F8CC30D8
:10B02000002B3CD0D4F8C800C8B31FFA86FA5246A9
:10B0300039460FF0EBFDD4F8C8309B89804658465E
:10B040001FFA83FBFDF72AFF0338834525DB2148E0
:10B050002946FFF7BDFE50B3FDF720FF033882B24B
:10B06000104601920CF084FC834600B3019AD4F898
:10B07000C80059460FF018FE0346F0B958460CF0C8
:10B0800091FC464509D9AAEB08039BB207EB0802DD
:10B0900029464846FDF792FD58B1B04609E03A46C8
:10B0A00029464846B3B2FDF789FD0028F5D14FF097
:10B0B0000008404603B0BDE8F08F5A46294648468E
:10B0C000FDF77CFD044658460CF06CFC002CD8D1F2
:10B0D000EDE700BFC87E0020F9B402002DE9F04181
:10B0E00050F8183C84B004463B489E6A8DF80F1017
:10B0F000FFF762FE394B9E42054609D0A4F11800C5
:10B10000294601230DF10F02B04704B0BDE8F081DC
:10B1100001463148FFF75CFE064650B304F11007C4
:10B1200038462946FDF71AFD18B394F8CC30002BA9
:10B1300049D0D4F8C800002845D00DF10F010122F4
:10B140000FF064FDD4F8C8309B89804630469EB22B
:10B15000FDF7A4FE033886420DDA0120D5E732461A
:10B1600029463846FDF72AFD044630460CF01AFC05
:10B17000F4B90020C9E718482946FFF729FE00283E
:10B18000F7D0FDF78BFEC21E92B2104601920CF072
:10B19000EFFB06460028ECD0019AD4F8C8003146EF
:10B1A0000FF082FD03460028D9D130460CF0FAFB9F
:10B1B000B8F1000FD1D10DF10F0229463846012315
:10B1C000FDF7FCFCA1E72946384601230DF10F02EB
:10B1D000FDF7F4FC99E700BFC87E0020F9B4020037
:10B1E0002DE9F04105683B4BAD6A82B09D428DF878
:10B1F000072065D1044638480E46FFF7E9FD0546AD
:10B2000000284FD004F1280738463146FDF7A6FC48
:10B21000002847D094F8E430002B47D0D4F8E00061
:10B22000002843D00DF1070101220FF0EFFCD4F804
:10B23000E0309B89804628469DB2FDF72FFEC31E55
:10B240009D4244DB24483146FFF7C2FD50B3FDF771
:10B2500025FE033882B2104600920CF089FB0546A9
:10B2600000B3009AD4F8E00029460FF01DFD68B93C
:10B2700028460CF097FBB8F1000F28D10DF107021A
:10B28000314638460123FDF799FC0CE003462A4677
:10B2900031463846FDF792FC044628460CF082FB06
:10B2A000002CE8D1002002B0BDE8F08131463846DC
:10B2B00001230DF10702FDF781FC02B0BDE8F0812A
:10B2C00001230DF10702A84702B0BDE8F08101207B
:10B2D000E9E700BFF9B40200C87E00202DE9F04F75
:10B2E000036883B0044641489E6A88461746FFF7C4
:10B2F00063FD3F4B9E42054661D101463B48FFF747
:10B3000067FD0646002855D004F12809484629461D
:10B31000FDF724FC00284DD094F8E430002B41D0F8
:10B32000D4F8E00000283DD01FFA87FA5246414683
:10B330000FF06CFCD4F8E02003463046B2F80CB0B5
:10B340001E46FDF7ABFD1FFA8BFB0338834524DB5C
:10B3500026482946FFF73CFD60B3FDF79FFD033803
:10B3600082B2104601920CF003FB834610B3019A9F
:10B37000D4F8E00059460FF097FC48BB58460CF053
:10B3800011FBB74209D9AAEB06039BB208EB0602F0
:10B3900029464846FDF712FC68B13E46304603B0E8
:10B3A000BDE8F08F424629464846BBB2FDF706FC91
:10B3B0000028F2D10026304603B0BDE8F08F0146E8
:10B3C0003B4642462046B44603B0BDE8F04F6047D6
:10B3D00003465A4629464846FDF7F0FB04465846C0
:10B3E0000CF0E0FA002CCCD1E4E700BFC87E0020CE
:10B3F000F9B402002DE9F041036882B004463C48EC
:10B400009E6A8DF80710FFF7D7FC3A4B9E4205461F
:10B41000014663D13648FFF7DBFC064600284FD0D3
:10B4200004F1280738462946FDF798FB002847D045
:10B4300094F8E430002B47D0D4F8E000002843D043
:10B440000DF1070101220FF0E1FBD4F8E0309B89F8
:10B45000804630469EB2FDF721FDC31E9E4245DB6D
:10B4600023482946FFF7B4FC50B3FDF717FD033816
:10B4700082B2104600920CF07BFA064600B3009AA6
:10B48000D4F8E00031460FF00FFC68B930460CF0FC
:10B4900089FAB8F1000F29D10DF107022946384683
:10B4A0000123FDF78BFB0CE0034632462946384664
:10B4B000FDF784FB044630460CF074FA002CE8D10A
:10B4C000002002B0BDE8F0812946384601230DF185
:10B4D0000702FDF773FB02B0BDE8F08120460123AF
:10B4E0000DF10702B04702B0BDE8F0810120E8E7A6
:10B4F000C87E0020F9B402002DE9F04F044683B065
:10B50000384890461F460E46FFF762FC002856D08A
:10B5100004F12809054631464846FDF71FFB00287F
:10B520004DD094F8E430002B41D0D4F8E00000284E
:10B530003DD01FFA87FA524641460FF067FBD4F818
:10B54000E02003462846B2F80CB01D46FDF7A6FCE5
:10B550001FFA8BFB0338834524DB22483146FFF773
:10B5600037FC60B3FDF79AFC033882B210460192B3
:10B570000CF0FEF9834610B3019AD4F8E000594666
:10B580000FF092FB00BB58460CF00CFABD4209D2FA
:10B59000AAEB05039BB208EB050231464846FDF7CE
:10B5A0000DFB68B13D46284603B0BDE8F08F42462A
:10B5B00031464846BBB2FDF701FB0028F2D1002519
:10B5C000284603B0BDE8F08F03465A463146484648
:10B5D000FDF7F4FA044658460CF0E4F9002CD5D1F6
:10B5E000EDE700BFC87E002070B584B004460E466B
:10B5F00068461E49FEF7E0FE69462046FEF7A6FEB5
:10B600006846FEF7C3FE1A4B1A4903F108020025EB
:10B6100048334FF47A70C4E90635226020626846E8
:10B62000FEF7CAFE694604F12800FDF743FA6846B2
:10B63000FEF7ACFE10496846FEF7BEFE694604F10F
:10B640008000FDF737FA6846FEF7A0FE2046C4E901
:10B650003A55C4F8D850A4F8DC60C4F8F050C4F8E7
:10B66000E05084F8E45004B070BD00BFF43504002D
:10B6700004360400E4350400D435040010B50D4B45
:10B680000446D0F8E00023604033A36110B10368A2
:10B690005B68984704F18000FCF73EFF04F1280046
:10B6A000FCF73AFF2046044B40F8083BFEF76EFEDD
:10B6B000204610BD0C3604002C35040010B50F4B8D
:10B6C0000446D0F8E00023604033A36110B1036862
:10B6D0005B68984704F18000FCF71EFF04F1280026
:10B6E000FCF71AFF2046064B40F8083BFEF74EFEDB
:10B6F00020460EF09DFC204610BD00BF0C36040015
:10B700002C35040070B5044682B018200EF08EFC73
:10B710000022054601210FF047FA2846B4F8DC1054
:10B72000C4F8D8500FF052FA2046FEF7F3FD054654
:10B7300010B1284602B070BD01211E48FFF740FB42
:10B7400004F1280603461021304601961E46FDF7F7
:10B75000E9F92A4601981121FDF7EAF901983146E5
:10B76000FDF7E4F901981449FDF7F0F90198FCF7A9
:10B77000EDFE05460028DCD104F180000C2101908B
:10B78000FDF7D0F901980D490122FDF7D7F91122F3
:10B7900001982946FDF7CCF901983146FDF7C6F925
:10B7A00001980749FDF7D2F9019802B0BDE8704051
:10B7B000FCF7CCBEC87E0020CC35040095AE02005C
:10B7C000D0350400002201214270C0E9012201703D
:10B7D000C2818281704700BF10B50446017001B17B
:10B7E00010BD0A200CF088F9606010BD037810B518
:10B7F000044643B1002301226370C4E90133E381AD
:10B80000A381227010BD40680CF04CFFF2E700BF2E
:10B81000002381608281C381704700BF037870B5C7
:10B8200004460D46B3B94668012363704FF47A723B
:10B830000023A802A90D14F051F9014630460CF07E
:10B84000B5FD98B9237800264FF0FF356670A3B98F
:10B85000284670BD0322002101200CF00BF906469A
:10B8600060600028E0D14FF0FF35F1E7E5892378EB
:10B870000026ADB26670002BEAD060680CF012FFB3
:10B880006660284670BD00BF4078704738B50446F2
:10B890008089824228BF0246154619B1A06814F07B
:10B8A00047FBA089E389A26815FA83F3401B9BB28A
:10B8B0002A44A081E381A260284638BD406820B1B7
:10B8C00000231A4619460CF049B97047B1DF70479A
:10B8D000B2DF704708B50F480BF09EFC0E490D48CB
:10B8E00005F07EFF28B10D490A4805F079FF50B1F7
:10B8F00008BD0949074805F08FFF0849054805F0CC
:10B900006FFF0028F4D1BDE808400449014805F064
:10B9100083BF00BF00950020683604007C36040019
:10B9200070B586B00E4603230021054614460093E9
:10B93000044A0496084603AB039505940FF0A6F855
:10B9400006B070BD0DBC020070B586B0032314466E
:10B9500006460D460093104603AB044A05940721A2
:10B96000CDE903650FF092F806B070BD3DBD020051
:10B9700030B50A4691B089795379039111790293D0
:10B98000D378094D094C019100939378527801289E
:10B990000CBF2946214604A815F0ACF904A90448B7
:10B9A00005F092FF11B030BD90360400C03604009F
:10B9B000009500202DE9F043D1B00B78032B04AFA4
:10B9C0000D460446904668D95A08022A5ED14F4A6D
:10B9D0004F49504BDFF84891012818BF114600220B
:10B9E000381D06F049F94B4907F1680006F07AF86E
:10B9F00007F1CC0611E00246414607F1680006F067
:10BA000063F908F1380229464846FEF761F8044612
:10BA100078BB07F1680006F0CDF90022391D3046E9
:10BA200006F0FAF907F1D0000DC8D7F8DC10D7F806
:10BA3000E4407B67D7F8E83097F8E0C0F8663A67EB
:10BA4000B967412207F1EC0107F18800C7E92043FB
:10BA500087F87CC014F06CFA07F1680006F0D6F99C
:10BA6000044607F1680044B105F0DCFF5028D0D14E
:10BA7000C1E707F1680006F09DF9381D06F09AF954
:10BA8000204607F59A77BD46BDE8F083002420469E
:10BA900007F59A77BD46BDE8F083E9468CB0897911
:10BAA000AB786A78039169790291297901911A4EEC
:10BAB0001A49E878009004AD012C08BF31462846A9
:10BAC00007F1CC0615F016F91249304606F00AF8CF
:10BAD00029463046002206F0B3F8044650B9002447
:10BAE000304606F067F92046CD4607F59A77BD4601
:10BAF000BDE8F083304605F095FF021EEFDD92B2FF
:10BB00004146304606F0E0F8EAE700BF7C36040024
:10BB1000683604000095002090360400C03604000A
:10BB2000E87E0020F0B5ADB095799378344E144698
:10BB3000527803956579029594F804C0CDF804C055
:10BB4000304DE478009404AF0C4601280CBF314618
:10BB5000294607F10C0015F0CDF82B4B07F10C012D
:10BB600007F13C00002206F087F807F13C0006F0E0
:10BB70004DF940B9002407F13C0006F01BF92046BE
:10BB8000A437BD46F0BD07F13C0005F04BFF051E94
:10BB900008DD07F13C0006F0D5F8291807F13C0054
:10BBA00006F0B2F807F13C0005F03CFF051E08DD89
:10BBB00007F13C0006F0C6F8291807F13C0006F032
:10BBC000A3F807F13C0005F02DFF0028D2DDC31DCE
:10BBD00023F007036D46ADEB030D82B204A907F114
:10BBE0003C00C7E9001206F06FF82046D7E90012C2
:10BBF0000323FFF76BFEB0FA80F46409AD46BAE7A1
:10BC000090360400C036040000950020F0B5B5B0B1
:10BC100092F84E5092F84A30434E144692F849201A
:10BC2000039594F84D50029594F84C50019594F872
:10BC30004B5000950D463D4904AF012818BF3146D1
:10BC400007F12C0015F056F8394807F12C0105F0E2
:10BC5000C7FD6E4600284AD1354B07F12C0107F18C
:10BC60005C00012206F008F807F15C0006F0CEF84F
:10BC700018B9C437B546BD46F0BD502107F15C0088
:10BC800005F0FEFE5022214607F15C0005F036FE6D
:10BC90000023294627487B61C7E90333C7E90633F8
:10BCA000C7E90833BB62FFF793F807F10C012022C4
:10BCB000FDF70CFA3B7B03B307F10C0015F06FF8AE
:10BCC000013082B2C1B207F15C007A6005F0D8FEA3
:10BCD0007A6807F10C0107F15C0005F00FFE07F12F
:10BCE0005C0006F067F8C437B546BD46F0BD07F105
:10BCF0002C010F4805F0E8FDAEE794F8491094F8E0
:10BD00004D3094F84E20039194F84A10029194F823
:10BD10004B10019194F84C10009107F10C0006496A
:10BD200014F0E8FFC8E700BFC036040090360400F6
:10BD300000950020C87E0020F03604002DE9F04375
:10BD4000ADB00C4604AF002103230646154620463D
:10BD500007F10A027981FFF7BBFD7B89E84623B929
:10BD6000A437C546BD46BDE8F0830733DB08A8EB22
:10BD7000C3039D460DF11009204607F10A0249460A
:10BD80000323FFF7A5FD04460028E9D1A979AB7884
:10BD90006A78039169790291297901913D483E4978
:10BDA000ED780095012E08BF014607F10C0014F054
:10BDB000A1FF3A4B07F10C0107F13C00012205F00D
:10BDC0005BFF07F13C0006F021F80028C8D02146AF
:10BDD00007F13C0005F098FF07F13C0005F022FE5A
:10BDE000041E08DD07F13C0005F0ACFF211807F147
:10BDF0003C0005F089FF07F13C0005F013FE041E2E
:10BE000008DD07F13C0005F09DFF211807F13C001B
:10BE100005F07AFF07F13C0005F004FE7C8980B252
:10BE2000A04213D0E1B207F13C0005F029FE224602
:10BE3000494607F13C0005F061FD07F13C0005F0C3
:10BE4000B9FFA437C546BD46BDE8F083E31D6D4686
:10BE5000DB08A5EBC3039D4604A9224607F13C007D
:10BE6000796005F031FF79687A89484614F052F814
:10BE700008B9AD46E1E707F13C0005F07FFF7B899B
:10BE8000DB43191807F13C0005F03EFFAD467C8905
:10BE9000C8E700BF90360400C036040000950020BB
:10BEA00038B590F8E8500DB1284638BD012380F828
:10BEB000E830044610F008FE0028F5D12046BDE821
:10BEC000384000F0ADB800BF10B5044C204600F07B
:10BED000A3F8002384F8E83010BD00BF548600208A
:10BEE00003680A689A4201D00020704770B5044682
:10BEF00084B04FF453700D460BF03AFD0646B0B1D6
:10BF00000C4800F0ABF823460435002153F8042B0D
:10BF10000095CDE90161084910F070FC04463046F7
:10BF20000BF040FDB4FA84F0400904B070BD00206D
:10BF300004B070BD54860020D9B50300F0B585B0BB
:10BF400006464FF453700D46174603930BF010FD51
:10BF500078B1044600903A46281D311D03AB10F01D
:10BF6000CBFC054620460BF01DFD15B9039805B026
:10BF7000F0BD002005B0F0BD00220260704700BF98
:10BF800010B50446084610F029FD2060003818BF9F
:10BF9000012010BD00220260704700BF10B50446AA
:10BFA000084610F01BFD2060003818BF012010BDAE
:10BFB00000230360704700BF00B583B004300192D6
:10BFC00001AB0A46042110F093FB18B9019803B0A5
:10BFD0005DF804FB002003B05DF804FBF0B50446F7
:10BFE00083B04FF463700E4617460BF0C1FC054654
:10BFF00078B1019054F8040B00943A46314601237D
:10C0000010F0B2FA044628460BF0CCFCB4FA84F0E7
:10C01000400903B0F0BD00BF002280F8E420704763
:10C0200070B590F8E4400CB1204670BD012380F853
:10C03000E43005464FF4BF500BF09AFC064600284A
:10C04000F2D0314628460FF0B3FC0446B4FA84F42B
:10C05000304664090BF0A6FC204670BD704700BF57
:10C060000146014800F056BA6087002038B500F05C
:10C0700097F940B1002405462046013400F0C8FD80
:10C08000E0B28542F9D838BD70B592B01D460C4675
:10C09000164601A84222002113F072FF412D5CD9FF
:10C0A000631C0222DBB28DF806408DF80E408DF83D
:10C0B000264040F6083540F202248DF81E308DF8F7
:10C0C00027308DF83130ADF804508DF807208DF809
:10C0D00012208DF833208DF83B20ADF80840204A1F
:10C0E000069240F2012505232424ADF810508DF866
:10C0F00015308DF8164004231A4C8DF81F30012599
:10C1000040F224628DF81C508DF830300894ADF860
:10C110002420154D0A9508234FF411640A228DF846
:10C120002C30ADF82E4040238DF834200F4C8DF884
:10C130003C3001A9304640F2075540F20946422200
:10C14000ADF80C60ADF838508DF84330CDF83F4075
:10C1500013F0EEFE422012B070BD002012B070BD90
:10C16000200105242402020507058003070580023B
:10C17000007EFF280AD010B500F0F8FC044608B194
:10C18000204610BD0EF0A2FB204610BD00207047D7
:10C19000007EFF280ED000B583B00DF1070100F03E
:10C1A0002DFD20B19DF8070003B05DF804FB4FF0B2
:10C1B000FF30F9E74FF0FF30704700BF007EFF28E7
:10C1C0000FD000B583B001220DF1070100F0DAFCB9
:10C1D00020B19DF8070003B05DF804FB4FF0FF307D
:10C1E000F9E74FF0FF307047007EFF2801D000F0E4
:10C1F0000FBD7047007EFF2801D000F069BD002010
:10C20000704700BFF8B50646007EFF281CD01746D1
:10C210005AB10D46144600F083FC2946224680B1EF
:10C22000307E00F039FD241A01D13846F8BD0544AE
:10C230000EF04CFB307E00F073FC294622460028AD
:10C24000EED13F1B3846F1E70020F8BD70B503681A
:10C25000184A5B6882B093428DF8071021D10546D9
:10C26000007EFF2823D000F05BFC0DF107060124BF
:10C270003146224688B1287E00F00EFD241A02D1F4
:10C28000012002B070BD06440EF020FB287E00F0B5
:10C2900047FC314622460028EDD1C4F1010002B02E
:10C2A00070BD01220DF10701984702B070BD00205A
:10C2B00002B070BD05C2020070B592B01D460C46BA
:10C2C000164601A84222002113F05AFE412D5CD9E6
:10C2D000631C0222DBB28DF806408DF80E408DF80B
:10C2E000264040F6083540F202248DF81E308DF8C5
:10C2F00027308DF83130ADF804508DF807208DF8D7
:10C3000012208DF833208DF83B20ADF80840204AEC
:10C31000069240F2012505232424ADF810508DF833
:10C3200015308DF8164004231A4C8DF81F30012566
:10C3300040F224628DF81C508DF830300894ADF82E
:10C340002420154D0A9508234FF411640A228DF814
:10C350002C30ADF82E4040238DF834200F4C8DF852
:10C360003C3001A9304640F2075540F209464222CE
:10C37000ADF80C60ADF838508DF84330CDF83F4043
:10C3800013F0D6FD422012B070BD002012B070BD77
:10C390002001052424020205070580030705800209
:10C3A000014B1878704700BF5C870020037EFF2B8D
:10C3B00002D1074B1A7802B17047064902764161F3
:10C3C000012200F1100104481A7000F043B800BFC8
:10C3D0005C8700201037040060870020007EFF2863
:10C3E0000ED000B583B000F09BFB10B103B05DF838
:10C3F00004FB01900EF06AFA019803B05DF804FBAB
:10C400000020704701B900B1704700B583B069469C
:10C4100000F09CFB009BB3F5966F02D003B05DF873
:10C4200004FB00F029FBF9E730B4084B084AFF2071
:10C4300002F108054FF47A740021303218761D603D
:10C440009C601A6130BC5960596170474087002078
:10C4500020370400F8B50546B0F818016C69B5F846
:10C460001A310A680E4604441B1A176895F81C1105
:10C470009BB222463046B84750B3221894423CD271
:10C48000766806E0052B25D023780BB31C44A24226
:10C4900033D96378042BF5D1E378002BF4D195F8E8
:10C4A0001C11013185F81C11002EEDD095F84011BA
:10C4B0000729E9D801F1480745F82760217295F866
:10C4C0004011013185F840111E462378002BDDD143
:10C4D0000020F8BD94F90230002B08DB95F81E31DE
:10C4E000591C85F81E11A1780B43A370CCE795F871
:10C4F0001D31591C85F81D11F5E7B5F818216B6938
:10C50000104480B2A5F81801588095F81C211A71C2
:10C510000120F8BD2DE9F043284DDFF8B090AC467E
:10C5200004468846BCE80F0089B003AF0FC703AECE
:10C530000FCE05F1140E25460FC59EE80700DCF866
:10C5400000303B806B4636682E8003C36B4603CBBE
:10C550001B4EA06104F118034FF4807C0125E161BA
:10C5600084F82020636140F2EF2200231548C4F8CC
:10C57000189140F209470421A4F81CC1C4F828010D
:10C5800084F84011A280C4F82C31C4F83031C4F8CA
:10C590003431C4F83831C4F83C314FF4E131C4E9E6
:10C5A0004876094884F81E51A571FFF7FFFE404602
:10C5B00000F050FA284609B0BDE8F0837037040057
:10C5C000543704008835040040870020090000012A
:10C5D0002DE9F04F04468BB0002900F0918003292B
:10C5E00000F09C8090F840318B4240F2CB80483183
:10C5F00000F5A27550F821603278002A00F0E7803B
:10C6000000231946374603E00131725C7718CAB13E
:10C6100002F14000C0B20128F6D9F42AF4D810067D
:10C6200018D40120A2F55847B7F5006FECD30144A8
:10C63000202B00F0C98025F81320725C0133771895
:10C64000002AE5D1DBB201335B0043F4407304F50B
:10C65000A17C5DE002F0E000C02800F0A18002F0C3
:10C66000F000E02800F0918002F0F800F028CBD133
:10C6700002F007024FF0040E787800F0C00CBCF115
:10C68000800FC1D197F802C00CF0C00800F03F0045
:10C69000B8F1800F40EA8212B6D10CF03F0CBEF127
:10C6A000030F4CEA821275D0F87800F0C007802F93
:10C6B000AAD100F03F0040EA8212A2F58030B0F526
:10C6C000801F38BF4FF0040E9ED2A2F55840B0F53F
:10C6D000006F99D3B2F5803F7144A9D31E2BB1DC12
:10C6E000A2F580325800970A2844C2F30902A7F540
:10C6F0002057A2F5105225F813704280023384E7C8
:10C70000D0F82031A0F8443100F5A17C4FF44173FA
:10C71000A4F8423160460BB0BDE8F08F02A800F0EB
:10C72000ADF904F5A17C019020B300F1FF3B5FFA65
:10C730008BF3284F04F1040B0DF1080A0BEB830B6C
:10C74000A64606AE97E80F001AF8018B86E80F00A0
:10C7500008F00F090AADA94405EB181819F8109C48
:10C7600018F8103CAEF84691AEF844310EF1040EC4
:10C77000DE45E7D1019B5B00DBB201335B0043F494
:10C780004073C5E74FF0000CC4E702F00F024FF012
:10C79000030E71E7A2F50060B0F5784F95D333E74B
:10C7A000787800F0C007802F02F01F027FF42CAFD2
:10C7B00000F03F0040EA8212A2F18000B0F5F06F75
:10C7C000BFF422AF02202DE740F242333FE740F2B0
:10C7D00002333CE75C370400004870476087002064
:10C7E000014B5869704700BF608700200A46014628
:10C7F0000148FFF7EDBE00BF60870020024B1868BC
:10C8000000B10069704700BFE488002030B40848D8
:10C81000BDF80850046844B1646934B10846A446C0
:10C8200011461A462B4630BC6047002030BC70478A
:10C83000E488002030B40848BDF80850046844B1CA
:10C84000A46934B10846A44611461A462B4630BCAA
:10C85000604730BC704700BFE4880020024B186876
:10C8600008B190F850007047E88800202DE9F047A3
:10C87000244C2568002D42D01F4600EBC00305EB79
:10C8800083030446D3F818A089469046C600BAF13F
:10C89000000F30D0504614F082FA0828024628BF14
:10C8A0000822344405EB8405D5E90764DFF85CC051
:10C8B000154B002E08BF664651464846002C08BF5F
:10C8C0001C4613F035FB304614F069FA1028024676
:10C8D000314628BF1022404613F02AFB204614F0B0
:10C8E0005EFA042802462146384628BF0422BDE8E5
:10C8F000F04713F01DBBDFF818A00822D1E7BDE810
:10C90000F08700BFE8880020AC3704009C370400A3
:10C9100090370400F8B50B4F3B688BB100EBC005B6
:10C9200003EB850504466A69C6001AB190473B6867
:10C9300085F82A00344403EB840393F82A00F8BDF9
:10C940001846F8BDE8880020074B1B685BB100EB78
:10C95000C00003EB800010B4038D446A0C605DF8E6
:10C96000044B138070477047E88800200A781E2A1D
:10C9700001D10020704710B520221C46052100235C
:10C9800000F078FF204610BD30B4094C029A2568AB
:10C9900055B1044604EBC40405EB8404084619466B
:10C9A000A3680BB130BC18474FF0FF3030BC704764
:10C9B000E888002030B4094C029A256855B1044635
:10C9C00004EBC40405EB840408461946E3680BB184
:10C9D00030BC18474FF0FF3030BC7047E88800206B
:10C9E000054B1B6833B100EBC00003EB800003690B
:10C9F00003B11847704700BFE888002000B5104B0E
:10CA0000402283B083F8272303F030FF4FF08043A8
:10CA10000024D3F838548DF8004068460DF020FB10
:10CA2000084B019301A80DF06BFB0DF075FBEB07B4
:10CA300002D401F009FFFCE7204603F053FDF8E7BC
:10CA400000E100E049CA020003F04CBD002003F001
:10CA500029BA00BF00B5002383B00322CDE900232B
:10CA600003490448C8220BF0BBFF03B05DF804FB88
:10CA7000B0370400FDC902000EF0C0B94FF080527B
:10CA8000536E1BBA0360136E1BBA436008207047D5
:10CA900000487047B837040070B51F4D2B68B3B11C
:10CAA00099B91478C4F34114012C0BD0022C07D18E
:10CAB0005478012C0DD0022C07D19388072B21D05C
:10CAC000084670BD517822290CD0012070BD18464F
:10CAD00070BDDC69F4B1237811462246BDE8704090
